:100000007838116D7806116D780C116D7801116DCD
:10001000759850758920758840758DE87880116DC8
:10002000785211807881116D784511807882116D38
:10003000785A11807883116D784911807A00EAF539
:100040009975F064847886116D2430F81180E5F09C
:1000500075F00A847887116D2430F81180E5F07806
:1000600088116D2430F81180119C0A80D1D2B3C25E
:10007000B2119588901195C2B31195D2B211952203
:10008000D2B2D2B3119588901195C2B3120095D215
:10009000B312009522790009B999FC227F007E00F5
:0F00A0007D000DBD40FC0EBE40F60FBF40F022AC
:00000001FF
